:020000040800F2
:10000000A0070020010100082F0F0008D50A0008F2
:100010002B0F0008490900086320000800000000B9
:100020000000000000000000000000005513000860
:100030004D09000800000000FD11000881150008AE
:100040001B0100081B0100081B0100081B01000820
:100050001B0100081B0100081B0100081B01000810
:100060001B0100081B0100081B0100081B01000800
:100070001B0100081B0100081B0100081B010008F0
:100080001B0100081B0100081B0100081B010008E0
:100090001B0100081B0100081B0100081B010008D0
:1000A0001B0100081B0100081B0100081B010008C0
:1000B0001B0100081B010008C51600081B010008F1
:1000C0001B0100081B0100081B0100081B010008A0
:1000D0001B010008511D0008D91D0008191E000849
:1000E0001B0100081B0100081B010008DFF80CD0F1
:1000F00000F018FC0048004759260008A00700201F
:100100000648804706480047FEE7FEE7FEE7FEE7B1
:10011000FEE7FEE7FEE7FEE7FEE7FEE799150008CB
:10012000ED000008F0B480EA0102D40F4200B2EB07
:10013000410F02D20246084611464A0042D0C30D82
:10014000DDB2C1F3C752AD1A202D35DAC1F3160165
:1001500041F4000204B15242C5F1200602FA06F150
:100160002A411044B3EBD05F23D0C4B1012DA0EBE2
:10017000C35009DCF0BC4FF0004202EAC352DBB2CC
:1001800000F5000000F0DABA400000F1807000EBEA
:10019000C350A0F1807040EAD170490009E04908DD
:1001A00041EAC071A0EBC35000F50000400800EB2D
:1001B000C350F0BC00F0B9BA6142012202EB410128
:1001C000001BF6E7F0BC704781F00041AAE780F021
:1001D0000040A7E780EA010210B502F000434000AA
:1001E00022D04A001FD0010E01EB1261C0F356006D
:1001F000C2F3560240F4000042F40002A0FB0220C9
:1002000000047F39140400D0401C50EA124001D48D
:100210004000491EC2B20C0604EBD010401C40083E
:10022000802A02D003E0002010BD20F00100002948
:1002300000DA0020184310BD30B480EA010202F059
:10024000004530F0004221F0004013D090B1C30DC2
:10025000D40DC2F31601C0F31600E41A41F40001F4
:1002600040F400027D34914201D3641C00E0490057
:10027000002C02DA30BC002070474FF4000000234D
:10028000914201D3891A034340084FEA4101F7D153
:1002900051B1914202D14FF0004105E002D24FF03E
:1002A000010101E06FF0010103EBC450284430BCB0
:1002B00000F03BBA2DE9FE4F804681EA0300C00FF3
:1002C0000C46009021F0004123F00045B8EB0200FD
:1002D000A94105D24046214690461C460B4602469F
:1002E00023F00040104347D0270DC7F30A00C3F3A3
:1002F0000A510290401A019040286BDAC3F31300B0
:1003000040F4801B0098924620B10023D2EB030AF0
:1003100063EB0B0B01985946C0F14002504600F0C8
:10032000D3F906460D4650465946019A00F0EBF9BE
:1003300010EB08006141002487EA115284EAE77358
:100340001A4340D0009A62B3019A012A4FEA075239
:1003500015DC001B61EB02014FF0004202EA07527C
:10036000CDE90042001C41F5801132462B4600F0D9
:1003700022FA03B0BDE8F08F40462146F9E7001BA2
:1003800061EB0201001C41F5801300185B4120184D
:10039000A2F5001747EB030140EAD570B6196D418D
:1003A00011E06D084FEA360645EAC0754FEA07527C
:1003B000001B61EB0201001C41F5801149084FEA66
:1003C00030000019514132462B4603B0BDE8F04FD2
:1003D00000F0E2B90098012240000023D0EB0202B5
:1003E00063EBE073009821464FEAE074B8EB00003D
:1003F00061EB0401E9E783F000435BE781F0004132
:1004000058E72DE9FE4F81EA030404F0004421F08F
:10041000004100944FF0000B23F0004350EA010428
:100420005ED052EA03045BD0C3F30A54C1F30A5509
:100430002C44A4F2F3340194A0FB0254C1F3130141
:1004400041F48011C3F3130343F4801301FB02440E
:1004500000FB034E840A970A44EA815447EA835713
:10046000A4FB076802958D0A05FB07854FEA932CCC
:1004700004FB0C542705029D4FEA065847EA16373D
:10048000B5EB08056EEB070C870E920E47EA811755
:1004900042EA8312A7FB0201B6EB0B0164EB0004F6
:1004A0002B0D43EA0C335E1844EB1C50DA465146E0
:1004B000E7FB0201C5F313044FEA0B3343EA14537D
:1004C0004FEA0432019C43EA0603A4F10C040294AF
:1004D000009CCDE900B400F06EF903B0BDE8F08FE8
:1004E00000200146F9E72DE9F04D81EA030404F00C
:1004F000004B21F0004514464FF0000A23F0004164
:1005000050EA050220D054EA01021DD0C5F30A5773
:100510000246C5F31303C1F31300C1F30A5640F4B6
:10052000801543F48013A7EB0608101BD64608F28B
:10053000FD3873EB050002D308F1010801E09218C1
:100540005B41B8F1000F03DA00200146BDE8F08DF1
:1005500000204FF48011064684460EE0171B73EB13
:10056000050705D3121B63EB050306434CEA010C98
:1005700049084FEA300092185B4150EA0107EDD17B
:1005800052EA030012D082EA040083EA050108431C
:1005900005D0101BAB4106D20122002306E0002249
:1005A0004FF0004302E06FF0010253101AEB060017
:1005B0004CEB085110EB0A0041EB0B01BDE8F04D8C
:1005C00000F0EAB80EB5C10F80EAE0700844CA072F
:1005D000002140F233438DE80E000A460B4600F03E
:1005E000EAF803B000BD20F00040C10DC0F31600D2
:1005F00040F400007F2901DA00207047962903DCCF
:10060000C1F19601C8407047963988407047C1F3E0
:100610000A5210B5C1F3130140F2FF3341F48011C7
:100620009A4201DA002010BD40F233439A42A2F20E
:10063000334203DC524200F056F810BD904010BD2A
:1006400000F0004230F000400AD0C10D01F56071A9
:10065000C0F3160042EA0151C20840071143704737
:1006600000200146704701F0004330B421F0004102
:1006700050EA010206D00A0DA2F56072C1F313011F
:10068000002A02DC30BC00207047440F44EAC10459
:10069000C100E01830BC00EBC25000F046B80000CA
:1006A000002801DBC0F10040002901DBC1F100415D
:1006B00081427047002801DBC0F10040002901DBC6
:1006C000C1F1004188427047202A04DB203A00FA39
:1006D00002F1002070479140C2F1200320FA03F399
:1006E000194390407047202A04DB203A21FA02F097
:1006F0000021704721FA02F3D040C2F1200291405C
:10070000084319467047202A06DBCB17203A41FAE6
:1007100002F043EAE07306E041FA02F3D040C2F18E
:10072000200291400843194670470029A8BF70472E
:10073000401C490008BF20F00100704710B4B0FA17
:1007400080FC00FA0CF050EA010404BF10BC7047B2
:1007500049B1CCF1200421FA04F411FA0CF118BFCC
:10076000012121430843A3EB0C01CB1D4FEA00619B
:100770004FEA102042BF002010BC704700EBC3506E
:1007800010440029A4BF10BC7047401C490008BF9A
:1007900020F0010010BC704710B5141E73F1000466
:1007A00008DA401C41F1000192185B411A4301D163
:1007B00020F0010010BD2DE9F04D92469B4611B18D
:1007C000B1FA81F202E0B0FA80F220329046FFF7EF
:1007D0007BFF04460F4640EA0A0041EA0B015346FC
:1007E0005A46084313D0114653EA010019D0C8F104
:1007F00040025046FFF777FF05460E4650465946E1
:100800004246FFF761FF084305D0012004E020467F
:100810003946BDE8F08D0020054346EAE0762C43DA
:1008200037430A986305E40AA0EB08000022FD0A9A
:1008300044EA47540A3002D500200146E9E70105A1
:1008400010196941DDE9084500196941BDE8F04D1D
:10085000A2E770B521F0004303430CD0C1F30A5561
:100860000024D5EB040564EB0403D617AD1AB3419D
:1008700002DB0020014670BD201841EB025170BD23
:100880002DE9F04D00231A461B1A8A4103DB002094
:100890000146BDE8F08DC1F30A52C1F3130141F4E2
:1008A00080154FF0000BD10702D100186D41521E88
:1008B0000027044640F2FF11384601EB620A3E462B
:1008C0008046024600204FF48011FFF70CFFC2194A
:1008D0007141BB1846EB0100B4EB030C75EB000C47
:1008E00004D3E41A65EB000517460E46241908F1F7
:1008F00001006D4180463428E3DDF91946EB06001E
:10090000091BA84103D24FF0FF32134601E0002239
:1009100013461BEB070046EB0A51BDE8F04DFFF70D
:100920003BBF0000064C074D06E0E06840F00103C5
:1009300094E8070098471034AC42F6D3FFF7DAFB8F
:10094000B82B0008D82B000800BFFEE7704710B591
:10095000044603E04FF47A7000F005F8201EA4F17D
:100960000104F7D110BD30B5044600F093F80546F8
:1009700000BF00F08FF8401BA042FAD330BD2DE934
:10098000F041024600250026002000230024002715
:1009900091F803C00CF00F0591F803C00CF0100C97
:1009A000BCF1000F03D091F802C04CEA050591F8A4
:1009B00000C0BCF1000F31D0146800202BE04FF0D4
:1009C000010C0CFA00F3B1F800C00CEA03069E42D9
:1009D00020D183004FF00F0C0CFA03F7BC4305FA4B
:1009E00003FC4CEA040491F803C0BCF1280F06D1C3
:1009F0004FF0010C0CFA00FCC2F814C00AE091F8A8
:100A000003C0BCF1480F05D14FF0010C0CFA00FCFB
:100A1000C2F810C0401C0828D1D31460B1F800C03F
:100A2000BCF1FF0F34DD546800202EE000F1080C0B
:100A30004FF0010808FA0CF3B1F800C00CEA030605
:100A40009E4221D183004FF00F0C0CFA03F7BC43F8
:100A500005FA03FC4CEA040491F803C0BCF1280F2A
:100A600005D100F1080C08FA0CF8C2F8148091F8CE
:100A700003C0BCF1480F07D100F1080C4FF001088A
:100A800008FA0CF8C2F81080401C0828CED3546035
:100A9000BDE8F08100BF0E4A11684FF0E0225269B4
:100AA0004FF0E0239B69D21A4FF47A735A434FF008
:100AB000E0235B69B2FBF3F201EB4103C3EBC1132B
:100AC00002EBC300024A12689142E4D17047000071
:100AD0003400002000BFFEE700B597B0FE488068F4
:100AE0000E90FD4880680D900E99FFF773FB1090F3
:100AF000F94840680C90F84840680B900C99FFF753
:100B000069FB0E90F44800680C90F34800680B9065
:100B10000C99FFF75FFB0D900E99FFF703FB0F9009
:100B20001099FFF7FFFA1190FFF78AFDCDE9120146
:100B300001F0B1FECDE91401FFF795FD1690E648EE
:100B4000806800211590FFF7B5FD6AD2E248806801
:100B50000990FFF775FDCDE90C01DF48406804906E
:100B6000DD48406803900499FFF734FB0690DA48AB
:100B700000680490D848006803900499FFF72AFBA6
:100B800005900699FFF7CEFA0790FFF759FDCDE9DA
:100B9000080101F080FECDE90A01DDE90C23FFF731
:100BA000A2FCCDE90E0101F02DFCCDE91201CB48EC
:100BB00001684FF08040FFF70DFB0A901699FFF790
:100BC00009FB0C90C64801680068FFF703FB0A9018
:100BD00016990846FFF7FEFA0890C04801680068B9
:100BE000FFF7F8FA07900899FFF79CFA09900A991D
:100BF000FFF7EAFA0B900C99FFF71EFB0D90FFF739
:100C00001FFDCDE90E0101F0BFFACDE91001DDE9CC
:100C10001223FFF7F0FBCDE91401FFF724FDB149E2
:100C20000860AD48806800211590FFF739FD39D183
:100C3000AA4801684FF08040FFF7CCFA0C90169953
:100C4000FFF7C8FA0E90A64801680068FFF7C2FADD
:100C50000C9016990846FFF7BDFA0A909F48016864
:100C60000068FFF7B7FA09900A99FFF75BFA0B9053
:100C70000C99FFF7A9FA0D900E99FFF7DDFA0F9086
:100C8000FFF7DEFCCDE9100101F07EFA0022964B61
:100C9000CDE91201FFF7AFFBCDE91401FFF7E3FC4B
:100CA000904908608C48806800211590FFF7F8FC97
:100CB00070D2894880680790FFF7C2FCCDE90A012D
:100CC0008548406802908448406801900299FFF787
:100CD00081FA04908048006802907F480068019083
:100CE0000299FFF777FA03900499FFF71BFA059032
:100CF000FFF7A6FCCDE9060101F0CDFDCDE9080125
:100D0000DDE90A23FFF7EFFBCDE90C0101F07AFBE7
:100D1000CDE91001714801684FF08040FFF75AFAA1
:100D200008901699FFF756FA0A906D480168006816
:100D3000FFF750FA089016990846FFF74BFA06900D
:100D4000664801680068FFF745FA05900699FFF7C5
:100D5000E9F907900899FFF737FA09900A99FFF720
:100D60006BFA0B90FFF76CFCCDE90C0101F00CFA6B
:100D7000CDE90E01DDE91023FFF73DFB00225B4BBF
:100D8000CDE91201FFF737FBCDE91401FFF76BFC4A
:100D900054490860524801684FF08040FFF71AFA42
:100DA0000A901699FFF716FA0C904C4801680068F3
:100DB000FFF710FA0A9016990846FFF70BFA089009
:100DC000474801680068FFF705FA07900899FFF7A0
:100DD000A9F909900A99FFF7F7F90B900C99FFF719
:100DE0002BFA0D90FFF72CFCCDE90E0101F0CCF9A8
:100DF000CDE91201384840680490374840680390B4
:100E00000499FFF7E7F906903348006804903248E8
:100E1000006803900499FFF7DDF905900699FFF744
:100E200081F90790FFF70CFCCDE9080101F033FDD3
:100E3000CDE90C01284880680990FFF701FCCDE955
:100E40000A01DDE90C23FFF74EFBCDE90E0101F0AD
:100E5000D9FACDE91001DDE91223FFF7CCFACDE98B
:100E60001401FFF700FC1F4948601B480068109000
:100E7000194840680F901099FFF7DEF91190FFF7BD
:100E8000DFFBCDE9120101F0BDFACDE91401FFF756
:100E9000EAFB14498860084600680146149014482B
:100EA000FFF798F913491590FFF7C6F90D49086047
:100EB00008464068014614900D48FFF78BF90D492C
:100EC0001590FFF7B9F90749486008468068014660
:100ED0001490074810E0000070030020B0000020CC
:100EE000B40000207C030020FA21F93FFA210940D8
:100EF00000003443D00F4940FFF76CF903491590C7
:100F0000FFF79AF90249886017B000BDD00F494039
:100F10007C030020704770477047704770477047E8
:100F200010B501F0A1FB10BD704700BFFEE7704790
:100F300070B5002100230F22C47804B3154C246837
:100F400004F4E064C4F5E064210AC1F10403CA407A
:100F5000447804FA03F184781440214309010E4CCB
:100F60000678A155047804F01F050124AC400578EB
:100F70006D11AD0005F1E025C5F8004109E00478E8
:100F800004F01F050124AC40044D0678761145F8A5
:100F9000264070BD0CED00E000E400E080E100E0E0
:100FA00002490143024A1160704700000000FA053F
:100FB0000CED00E070B5044600253E483E49097836
:100FC00044543D48007858B9AA2C05D13A480078D5
:100FD000401C394908706CE000203749087068E00F
:100FE00035480078012805D133480078401C324943
:100FF00008705EE03048007802280BD1052C05D13E
:101000002D480078401C2C49087052E000202A49E5
:1010100008704EE02848007803280DD1412C01D0FB
:10102000422C05D124480078401C2349087040E038
:101030000020214908703CE01F48007804280ED1A8
:101040001E4804700078142805DA1B480078401CFC
:10105000194908702DE000201749087029E016484A
:10106000017816480078401D81421DD1002005E01E
:101070001049095C2944CDB2411CC8B20F49097816
:10108000491D8842F4DBA5420AD10C480078801D36
:10109000C1B2084800F01EF800200749087008E0B7
:1010A00000200549087004E003480078401C02490C
:1010B000087070BDC000002031000020300000200A
:1010C000002002490880024908707047280000206B
:1010D000D400002070B504460D46E078412819D1AF
:1010E00060792D490871A1792B484171207AE17905
:1010F00040EA012001B22848C180A07A617A40EA22
:10110000012001B224480181E17A81720120224943
:1011100088703DE0E07842283AD160791E49087332
:10112000E079A17940EA012001B21B48C181607ACF
:10113000217A40EA012001B217480182A17A817424
:10114000207BE17A40EA012001B213488182A07B32
:10115000617B40EA012001B20F48C182E17B017648
:1011600002200D4988700D480088401C0B490880FA
:101170000948C0890A490988084400B2084908801A
:101180000548008A07490988084400B205490880D3
:10119000FFF796FF70BD0000D40000202E00002055
:1011A0002A0000202C0000201148806940F008002F
:1011B0000F4988610F48006820F470200D490860CD
:1011C0000846006840F4002008600948806940F043
:1011D00008000749886107480068C0F31300054903
:1011E00008600846006804490843024908607047DF
:1011F00000100240040C0140000030337047000032
:1012000029B1064AD2690243044BDA6104E0034A79
:10121000D2698243014BDA6170470000001002403E
:1012200029B1064A12690243044B1A6104E0034AD9
:1012300012698243014B1A6170470000001002409E
:1012400029B1064A92690243044B9A6104E0034AB9
:1012500092698243014B9A6170470000001002407E
:1012600029B1064AD2680243044BDA6004E0034A1B
:10127000D2688243014BDA607047000000100240E0
:1012800030B500210022002400232D4D6D6805F0AB
:101290000C0121B1042905D0082923D105E0294DED
:1012A000056022E0274D05601FE0254D6D6805F4BF
:1012B0007012234D6D6805F48034022505EB9242CF
:1012C0001CB9214D554305600BE01D4D6D6805F4BB
:1012D00000351DB11C4D5543056002E0194D5543C5
:1012E000056002E0174D056000BF00BF144D6D683A
:1012F00005F0F0010909154D6B5C0568DD4045609E
:101300000F4D6D6805F4E061090A104D6B5C45688E
:10131000DD4085600A4D6D6805F46051C90A0B4DCA
:101320006B5C4568DD40C560054D6D6805F4404166
:10133000890B074D6B5CC568B5FBF3F5056130BDE6
:101340000010024000127A0000093D001400002045
:10135000240000207047000070B5002400BF1EE08C
:1013600000F008F9054604EB44000E4901EB80004B
:101370008068281A04EB44010A4A02EB8101C988FB
:1013800088420AD304EB4400114601EB80008560DB
:1013900004EB440152F821008047601CC4B2082CC1
:1013A000DED370BD4C000020002000BF1FE000EB2A
:1013B0004001104A02EB810189884FF47A7292FB56
:1013C000F1F100EB40020B4B03EB8202D18000EB0A
:1013D00040011A4602EB8101C988012905DA012181
:1013E00000EB400203EB8202D180411CC8B2082806
:1013F000DDD370474C00002010B500F001F810BD9F
:101400000CB50020019000903348006840F4803013
:101410003149086000BF3048006800F40030009097
:101420000198401C0190009818B90198B0F5A06F80
:10143000F1D12948006800F4003010B1012000907B
:1014400001E0002000900098012843D12348006863
:1014500040F01000214908600846006820F00300B1
:1014600008600846006840F0020008601A484068BA
:10147000194948600846406848600846406840F49A
:10148000806048600846406820F47C104860084648
:10149000406840F4E81048600846006840F08070FA
:1014A000086000BF0C48006800F000700028F9D008
:1014B0000948406820F00300074948600846406832
:1014C00040F00200486000BF0348406800F00C0094
:1014D0000828F9D10CBD0000001002400020024095
:1014E000042808D14FF0E021096941F004014FF0D0
:1014F000E022116107E04FF0E021096921F00401C9
:101500004FF0E0221161704770B5174800684FF442
:101510007A71B0FBF1F4E4082146B1F1807F00D389
:101520001DE021F07F40401E4FF0E0225061501737
:101530000022002807DA13071E0E0C4B00F00F05DF
:101540002D1F5E5503E013071D0E094B1D5400BFF0
:1015500000204FF0E02290610720106100BF6FF083
:101560000400FFF7BDFF70BD0000002018ED00E093
:1015700000E400E0014800687047000038000020E7
:1015800000B504480068401C0249086001F0AAF94F
:1015900000BD00003400002010B51348006840F082
:1015A00001001149086008464068104908400E498A
:1015B0004860084600680E4908400B490860084624
:1015C000006820F4802008600846406820F4FE008F
:1015D00048604FF41F008860FFF70EFF4FF0006077
:1015E0000449086010BD0000001002400000FFF830
:1015F000FFFFF6FE08ED00E030B589B005460C4669
:1016000001210846FFF7FCFD01210420FFF718FE29
:101610000F20ADF8200018208DF8230003208DF84E
:10162000220008A92648FFF7AAF9ADF81850ADF82E
:1016300014400020ADF81A00ADF8160005A94FF0CF
:10164000804000F033FB7020ADF804000120ADF8BD
:1016500006000020ADF80A000220ADF80C0001A938
:10166000400700F0BFF901A94FF0804000F010FAE8
:1016700001A94FF0804000F06BFA01A94FF08040C3
:1016800000F0C0FA0121880700F072F80821C806AE
:1016900000F0F4F90821C80600F04CFA0821C80649
:1016A00000F0A6FA0821C80600F0EAFA012188072E
:1016B00000F014F80121880700F04EF809B030BDA1
:1016C0000008014010B50121034800F055F903213D
:1016D000014800F03EF810BD0008004021B102882A
:1016E00042F08002028004E002884FF67F731A40C5
:1016F000028070470EB501210420FFF781FD1248DA
:1017000000F046F86320ADF8040041F61E40ADF845
:1017100000000020ADF80600ADF8020069460A4856
:1017200000F0C4FA0121084800F010F80122114627
:10173000054800F03CF90121034800F00DF80021B4
:101740000420FFF75DFD0EBD00080040CA43028281
:101750007047CA430282704721B1028842F00102F9
:10176000028004E002884FF6FE731A400280704740
:1017700031B1B0F8442042F40042A0F8442005E022
:10178000B0F84420C2F30E02A0F8442070470000D5
:1017900010B504466848844208D10121C014FFF7FF
:1017A0005FFD0021E014FFF75BFDC4E0B4F1804F62
:1017B00008D101210846FFF733FD00210120FFF782
:1017C0002FFDB8E05D48844208D101210220FFF7D7
:1017D00027FD00210220FFF723FDACE0584884429A
:1017E00008D101210420FFF71BFD00210420FFF791
:1017F00017FDA0E05348844208D101210820FFF7DB
:101800000FFD00210820FFF70BFD94E04E488442B5
:1018100008D101211020FFF703FD00211020FFF760
:10182000FFFC88E04948844208D101212020FFF7CD
:10183000F7FC00212020FFF7F3FC7CE044488442C1
:1018400008D101214014FFF70BFD00216014FFF7C0
:1018500007FD70E03F48844209D10121C804FFF729
:10186000FFFC00214FF40020FFF7FAFC63E03A4848
:10187000844209D101210805FFF7F2FC00214FF451
:101880008010FFF7EDFC56E03448844209D1012175
:101890004805FFF7E5FC00214FF40010FFF7E0FCDE
:1018A00049E02F48844208D101214020FFF7B8FCCD
:1018B00000214020FFF7B4FC3DE02A48844208D1D3
:1018C00001218020FFF7ACFC00218020FFF7A8FC5D
:1018D00031E02548844208D101218015FFF7A0FCA2
:1018E0000021A015FFF79CFC25E02048844209D187
:1018F00001210804FFF7B4FC00214FF48030FFF70A
:10190000AFFC18E01A48844209D101214804FFF7CE
:10191000A7FC00214FF40030FFF7A2FC0BE01548B4
:10192000844208D101218804FFF79AFC00214FF47A
:101930008020FFF795FC10BD002C01400004004002
:1019400000080040000C004000100040001400405F
:1019500000340140004C014000500140005401405F
:1019600000180040001C00400020004000400140E2
:10197000004401400048014030B5024600200023E9
:101980000024158A05EA0103958905EA010413B1CB
:101990000CB1012000E0002030BD10B5FFF7AAFE19
:1019A00000F00EF801210420FFF72AFC10BD1AB147
:1019B00083890B43838102E083898B438381704752
:1019C00008B51E208DF8000001208DF801000320CD
:1019D0008DF8020001208DF803006846FFF7A8FA91
:1019E00008BD000070B5002400220023058C4FF6CE
:1019F000FE7635400584028C8388048B4FF68F7504
:101A00002C40B51E2C400D882C43751E2A400D8994
:101A10002A434D882A43144DA8420BD0134DA842A7
:101A200008D0134DA84205D0124DA84202D0124D45
:101A3000A84213D14FF6F7752A404D892A434FF635
:101A4000FB752A408D882A434FF6FF652B404FF6E1
:101A5000FF552B408D892B43CD892B4383800483F5
:101A6000CD888586028470BD002C01400034014081
:101A70000040014000440140004801400A46002166
:101A8000018B4FF6F7731940114301837047000033
:101A900070B5002400220023058C4FF6EF76354008
:101AA0000584028C8388048B48F6FF752C404FF622
:101AB000FF452C400D884FF6FF7606EA05252C439E
:101AC0004FF6DF752A400D8906EA05152A434D8831
:101AD00006EA05152A43154DA84202D0144DA84226
:101AE0001DD14FF67F752A404D894FF6FF7606EAE5
:101AF00005152A434FF6BF752A408D8806EA05155D
:101B00002A434FF6FF352B404FF2FF752B408D894E
:101B100006EA85052B43CD8906EA85052B4383809C
:101B20000483CD880587028470BD0000002C01402D
:101B3000003401400A460021018B4FF2FF73194027
:101B40004FF6FF7303EA0223194301837047000035
:101B500070B5002400220023058C4FF6FF66354047
:101B60000584028C8388848B4FF68F752C404FF64A
:101B7000FC752C400D882C434FF6FF552A400D89EB
:101B80004FF6FF7606EA05252A434D8806EA052525
:101B90002A43154DA84202D0144DA8421DD14FF240
:101BA000FF752A404D894FF6FF7606EA05252A4340
:101BB0004FF6FF352A408D8806EA05252A434EF662
:101BC000FF752B404DF6FF752B408D8906EA0515F4
:101BD0002B43CD8906EA05152B4383808483CD886A
:101BE0008587028470BD0000002C01400034014054
:101BF0000A460021818B4FF6F77319401143818308
:101C00007047000070B5002200230024058C4EF6BA
:101C1000FF7635400584038C8488828B48F6FF75F7
:101C20002A404FF6FF452A400D884FF6FF7606EA18
:101C300005252A434DF6FF752B400D8906EA05352B
:101C40002B434D8806EA05352B430B4DA84202D0A5
:101C50000A4DA84208D14BF6FF752C408D894FF6EE
:101C6000FF7606EA85152C4384808283CD88A0F810
:101C70004050038470BD0000002C0140003401403E
:101C80000A460021818B4FF2FF7319404FF6FF7314
:101C900003EA0223194381837047818670470187D5
:101CA000704781877047A0F8401070470022028873
:101CB0001D4B98420ED01D4B98420BD0B0F1804F77
:101CC00008D01B4B984205D01A4B984202D01A4BB1
:101CD000984204D14FF68F731A404B881A43174B22
:101CE000984207D0164B984204D04FF6FF431A4053
:101CF000CB881A4302808B8883850B8803850A4B27
:101D000098420BD0094B984208D00E4B984205D010
:101D10000D4B984202D00D4B984201D10B7A0386AD
:101D20000123838270470000002C014000340140F1
:101D30000004004000080040000C0040001000407B
:101D400000140040004001400044014000480140B0
:101D500010B54FF458711B4800F0C3F810B1194882
:101D600000F07AF91748008800F08000F0B11548BB
:101D70000C30008800F08000C0B113480178007872
:101D8000401C114A10701148405C0E49091D088022
:101D9000104600780E490978884207D109480C306E
:101DA000008820F0800007490C3108800548008831
:101DB00000F0200020B10348001D0088054908708C
:101DC00010BD0000003801403D000020EE00002062
:101DD0003E0000203C00002010B54FF458710B4825
:101DE00000F064F8094800F037F90949094A126817
:101DF000885408490968481CC11700EB5161C91192
:101E0000A0EBC111034A116010BD00000044004066
:101E1000EE0100204400002010B54FF458711F4817
:101E200000F05FF810B11D4800F016F91B4800885B
:101E300000F4C070F0B119480C30008800F0800048
:101E4000C0B1174801780078401C154A1070154839
:101E5000405C1249091D0880104600781249097833
:101E6000884207D10D480C30008820F080000B49D3
:101E70000C3108800948008800F0200060B140F271
:101E80002551064800F012F80448001D0088C4B22D
:101E90002046FFF78FF800BF10BD0000004800404B
:101EA000480000206E0200204900002010B50022EA
:101EB000002340F66A14A14200D100BF0A12012497
:101EC0009440A3B2DC43048010BD21B1828942F466
:101ED0000052828104E082894DF6FF731A408281AC
:101EE000704770B50246002400230025002040F60C
:101EF0006A16B14200D100BFC1F3421501F01F03C1
:101F0000012606FA03F3012D02D19689334006E03B
:101F1000022D02D1168A334001E0968A33400C121A
:101F2000012606FA04F41688344013B10CB10120DE
:101F300000E0002070BDF0B5034600240026002517
:101F4000002040F66A17B94200D100BF1846C1F31D
:101F5000421401F01F06012707FA06F5012C01D1F2
:101F60000C3004E0022C01D1103000E014301AB122
:101F700007682F43076002E00768AF430760F0BDC2
:101F80002DE9F04786B005460E460024A24600BF64
:101F9000A1460027B08900B100BF2F462C8A4CF61D
:101FA000FF700440F08804432C82AC894EF6F31095
:101FB0000440B08831890843718908430443AC81E7
:101FC000AC8A4FF6FF400440B0890443AC8201A8BC
:101FD000FFF756F91F48874202D1DDF810A001E053
:101FE000DDF80CA0A88900F4004040B10AEBCA005B
:101FF00000EB0A1031684900B0FBF1F807E00AEB8A
:10200000CA0000EB0A1031688900B0FBF1F86420C7
:10201000B8FBF0F004012009642101FB1089A889B4
:1020200000F4004040B1322000EBC900B0FBF1F0F9
:1020300000F00700044308E0322000EB091064219F
:10204000B0FBF1F000F00F0004432C8106B0BDE8B6
:10205000F08700000038014001468888C0F308007E
:10206000704700BFFEE7490050EAC12018BF0420B6
:102070004A0D18BF40F0010040F2FF72B2EB515F11
:1020800008BF40F00200012808BF052070472DE975
:10209000F0414F1E00EBC7010446D1E9000115468F
:1020A0001E4637F006020DD02A463346FEF7A9F940
:1020B0007F1E04EBC703D3E90023FEF7FBF837F0DC
:1020C0000602F1D1022F25D0042F13D0062F18BFFE
:1020D000BDE8F0812A463346FEF793F9D4E90A2396
:1020E000FEF7E8F82A463346FEF78BF9D4E90823D1
:1020F000FEF7E0F82A463346FEF783F9D4E90623D3
:10210000FEF7D8F82A463346FEF77BF9D4E90423D4
:10211000FEF7D0F82A463346FEF773F9D4E90223D6
:10212000FEF7C8F82A463346FEF76BF9D4E90023D8
:10213000BDE8F041FEF7BEB80122FEF78ABB0022DF
:10214000134610461146FEF7CEB90000024A0020A1
:102150001107FEF77EBB000001FDFFFF02E008C88B
:10216000121F08C1002AFAD170477047002001E011
:1021700001C1121F002AFBD170470000014908600D
:1021800070470000BC0000202DE9F04D0546DFF847
:10219000388221F000408D4F82B00C46404520DB54
:1021A000A0EB080129430BD08949884201DC10D1FA
:1021B0007DB102B028462146BDE8F04DFFF7BCBF17
:1021C000002CC7BF002001468248394602B0BDE856
:1021D000F08D0120FFF7D2FF02B0BDE8F04DFFF710
:1021E000AEBF7D49884244DA7C498142A1BF79482B
:1021F0007B4902B0BDE8F08D2A46234610461946B9
:10220000FEF7FFF88346024676480E460B46062147
:102210007844FFF73CFF5A463346FEF7F2F807468C
:1022200071488A465A46334604217844FFF72FFF07
:102230005A463346FEF7E5F800224346FEF73AF8E1
:1022400002460B4638465146FEF74DF92A462346CC
:10225000FEF7D7F8654A664BFEF7D0F82A462346C4
:10226000FEF7CCF802B05B4ABDE8F04D5C4BFEF7E0
:10227000C5B8002C4FF000024BDA464643462846CC
:102280002146FEF717F84FF0FF32FEF7E2FA044658
:10229000024658480D460B4606217844FFF7F7FEE4
:1022A00022462B46FEF7ADF8804653488A46224622
:1022B0002B4604217844FFF7EAFE22462B46FEF720
:1022C000A0F800223346FDF7F5FF06468B46204670
:1022D000294600F0E0FA04460D4632465B46404689
:1022E0005146FEF700F922462B46FEF78AF83F4A90
:1022F0003F4BFEF780F822462B46FDF7DBFF01221D
:10230000FEF7A7FA02B03B46BDE8F04D314AFEF7B2
:1023100075B82D4B28462146FEF770F84FF0FF3276
:10232000FEF797FA05460E4600F0B5FA00270C4670
:1023300080463A460B46FDF7BDFF82468B463A463D
:10234000234610461946FEF75CF82A463346FEF748
:1023500055F852465B46FEF7C6F8824627488B463C
:102360002A46334606217844FFF791FE2A46334633
:10237000FEF747F8CDE9000121482A4633460421FB
:102380007844FFF784FE2A463346FEF73AF80022E7
:102390000D4BFDF78FFF02460B46DDE90001FEF70E
:1023A000A2F842462346FEF72CF852465B46FDF75C
:1023B00081FF3A462346FDF77DFF02B00122BDE8CA
:1023C000F04DFEF746BA00000000F03FFB21094047
:1023D0000000F07F182D44540000E03F0000603CF6
:1023E000FB21F93FBC080000D2080000075C143351
:1023F00026A6913C3208000048080000660700004D
:102400007C0700002DE9F84F04460D4621F00040FE
:1024100000917349814211DC7249884201DC06D186
:102420002CB120462946BDE8F84FFFF785BE6E481F
:10243000002DCCBF6D496E49BDE8F88F6D498142D2
:1024400011DD6D498142D8BF4FF0FF366DDD20466A
:102450002946FFF708FE042808BFFFF777FE20464D
:102460002946BDE8F88F6549654F25F00045814252
:1024700033DD6449814219DD002632464FF0804346
:1024800020462946FDF716FF80468A46012220464F
:102490002946FEF7DEF900223B46FDF7ACFF424637
:1024A0005346FEF720F804460D463EE00126002282
:1024B000BA463B4620462946FDF7FCFE80460F46BD
:1024C0000022534620462946FDF795FF42463B46EB
:1024D000FEF709F804460D4627E04B4981421BDD13
:1024E000DFF828A102260022534620462946FDF7A0
:1024F00088FF00223B46FDF7DDFE80460F460022A6
:10250000534620462946FDF776FF42463B46FDF7F7
:10251000EAFF04460D4608E0032622462B4600202B
:102520003B49FDF7E0FF04460D4622462B46104688
:102530001946FDF766FF8B46824602460B46FDF7BD
:1025400060FF07460246334888460B46062178441A
:10255000FFF79DFD52465B46FDF753FF82462E482E
:102560008B463A46434605217844FFF790FD3A46AC
:102570004346FDF746FF02460B46002E504659469D
:102580000CDAFDF797FE22462B46FDF73AFF01B025
:1025900022462B46BDE8F04FFDF730BFFDF78AFE1F
:1025A00022462B46FDF72DFF1C4A7A4402EBC60358
:1025B000D3E90023FDF71FFF22462B46FDF71BFF43
:1025C000174A7A4402EBC603D3E90023FDF716FF4E
:1025D000009A002AB8BF81F00041BDE8F88F0000E2
:1025E000000010440000F07F182D4454FB21F93FF7
:1025F000FB21F9BF0000DC3F0000203E0000F33F5C
:102600000000F03F0000E63F008003400000F83F7C
:102610000000F0BF36060000F4050000920500003F
:102620005A0500007047000010B5FEF76DFF4FF42B
:10263000A060FEF7B5FCFEF7B7FE064800F0F8F91B
:10264000FEF7B2FD00F020F9FFF7A7F9014800F00E
:10265000EFF910BD20A10700FFF7E4FFFFF7E4FF4B
:1026600001E0FEF779FEFCE710B525482549086032
:1026700025484860254888602548C8602548007876
:10268000012823D10868FDF7AEFF84B2214602205D
:1026900000F0B6F81B494868FDF7A5FF84B2214653
:1026A000012000F0ADF817498868FDF79CFF84B25F
:1026B0002146032000F0A4F81249C868FDF793FFF3
:1026C00084B22146002000F09BF817E01148007802
:1026D000A0B9002000F05CF80F4A0B49084800F050
:1026E00009F9012000F054F80C4A0749044800F0A9
:1026F00001F9054A0A490B4800F0FCF810BD00003A
:102700000000A0428C0300200000C8420000B0423C
:102710000000B442AC000020000020C1000048428C
:102720000000C8C20000F04170B5174A1168174A8E
:102730001068FDF749FD0546FDF755FF84B22146B7
:10274000022000F05DF8104A5168104A5068FDF709
:10275000E9FC0546FDF747FF84B22146012000F061
:102760004FF8094A9168094A9068FDF7DBFC054675
:10277000FDF739FF84B22146032000F041F80A201A
:10278000FEF7E5F870BD00007C0300208C030020FC
:1027900070B50446012C15D14FF47A70FEF7D7F8C6
:1027A000144988681449FDF70FFD0646FDF71BFF25
:1027B00085B22946002000F023F84FF47A70FEF726
:1027C000C6F815E0A4B94FF47A70FEF7C0F80949CD
:1027D00088680A49FDF7A6FC0646FDF704FF85B2A6
:1027E0002946002000F00CF84FF47A70FEF7AFF89D
:1027F00070BD00008C030020000070420000A0416A
:102800002DE9F05F82468B4664210BFB01F0FDF75A
:10281000D9FE804600221A4BFDF765FE06460022CF
:10282000184BFDF747FD0446FDF7F1FE1FFA80FB4C
:10283000BAF1000F09D0BAF1010F0CD0BAF1020FB2
:102840000FD0BAF1030F18D111E059464FF0804074
:10285000FFF723FA11E059464FF08040FFF71FFAC7
:102860000BE059464FF08040FFF71BFA05E0594650
:102870004FF08040FFF717FA00BF00BFBDE8F09FA0
:102880000000224000407F4010B5472144F61F6001
:10289000FEF7B2FE10BD2DE9F04106460F46FDF7EA
:1028A000EFFF041E0D4618BF0120284320F0004012
:1028B000C0F17F6000F1E040C00F0ED0301C18BFA7
:1028C0000120384320F00040C0F17F6000F1E0407B
:1028D000C00F04BF0120FFF751FC20462946BDE888
:1028E000F081000002480068401C01490860704700
:1028F000380000202DE9F05F06460D4614464A4890
:1029000001683046FDF760FC824648480168504641
:10291000FDF792FC0746444841682846FDF754FC01
:102920008246424801685046FDF786FC80463E4894
:1029300081682046FDF748FC82463C4801685046C5
:10294000FDF77AFC814616E0374908683946FDF7FD
:10295000E9FB3549086048684146FDF7E3FB324929
:10296000486088684946FDF7DDFB2F498860FEF71F
:10297000B3F8FFF7D9FE2C4801683046FDF727FC75
:1029800083460021FDF796FE05D2274801683046B0
:10299000FDF71DFC06E0244801683046FDF717FCF2
:1029A00080F0004082464FF08041FDF779FECBD2A7
:1029B0001D4948682946FDF707FC83460021FDF7BD
:1029C00079FE05D2184948682946FDF7FDFB06E067
:1029D000154948682946FDF7F7FB80F0004082461C
:1029E0004FF08041FDF75CFEAED20F49886821466A
:1029F000FDF7EAFB83460021FDF75CFE05D20A499C
:102A000088682146FDF7E0FB06E007498868214613
:102A1000FDF7DAFB80F0004082464FF08041FDF781
:102A20003FFE91D2BDE8F09F70030020B800002067
:102A300010B586B00446012144F20400FEF700FC04
:102A40004FF40070ADF8140003208DF81600182024
:102A50008DF8170005A91C48FDF791FF4FF4806021
:102A6000ADF8140004208DF8170005A91648FDF7ED
:102A700086FF25208DF8000003208DF801008DF8D9
:102A8000020001208DF803006846FEF751FA019418
:102A90000020ADF80800ADF80A00ADF80C00ADF864
:102AA00010000C20ADF80E0001A90848FFF768FAE5
:102AB000012240F225510548FFF73DFA0121034864
:102AC000FFF703FA06B010BD0008014000380140CE
:102AD000555555555555C53F7D6FEB0312D6D4BF9F
:102AE0005544880E55C1C93F3B8F68B52882A4BFA5
:102AF00088B20175E0EF493F09F7FD0DE13D023F66
:102B00004B2D8A1C273A03C0C88A599CE52A0040ED
:102B100059018D1B6C06E6BF82922EB1C5B8B33F3A
:102B20004FBB610567ACDD3F182D4454FB21E93FE5
:102B30009BF681D20B73EF3F182D4454FB21F93FD4
:102B4000E2652F227F2B7A3C075C143326A6813C5A
:102B5000BDCBF07A8807703C075C143326A6913C05
:102B6000C4EB98999999C9BF711623FEC671BCBF71
:102B70006D9A74AFF2B0B3BF9AFDDE522DDEADBFD9
:102B80002F6C6A2C44B4A2BF0D5555555555D53FF1
:102B9000FF8300922449C23F6E204CC5CD45B73F0C
:102BA000513DD0A0660DB13FEB0D76244B7BA93F84
:102BB00011DA22E33AAD903FD82B00080000002044
:102BC000C00000005C210008982C0008C000002014
:102BD000E00600006C21000800A24A04000000008A
:102BE00000000000010203040607080900000000BD
:102BF000010203040102030406070809020406088F
:102C000000000000000000000000000000000000C4
:102C100000000000000000000000000000000000B4
:102C200000000000150F0008E8030000000000008D
:102C3000210F0008F4010000000000001B0F000835
:102C4000C800000000000000170F0008640000002A
:102C500000000000290F0008320000000000000002
:102C60001D0F00081400000000000000190F0008EC
:102C70000A000000000000001F0F00080200000012
:102C800000000000000000000000D84200000C43DB
:082C90000000C8420000000032
:04000005080000ED02
:00000001FF
